:1000000000308A0038280000A101A201A001A3014C
:100010003908031D0E283808031928281030BA00A3
:100020000310B60DB70DA00DA30D39082302031D53
:100030001B2838082002031C24283808A002031CAF
:10004000A3033908A3020314A10DA20DBA0B1028B3
:1000500000008A118D2836308400000803193628E4
:100060005230A000A00B3228800B30288A11A32820
:1000700084011F30830583161F149F141F159F11C1
:10008000FF308312A500A601B101B20183161F1033
:100090009F101F119F1183121F179F1783169F1305
:1000A00083121F140030A1001F08C73921049F00CC
:1000B0000830A000A00B5A282510250883168700B9
:1000C00083120714B401B301A6012608033C031CE4
:1000D00085280310260D273E84001F151F196E2842
:1000E0001E08840A8001840380000310260D273E29
:1000F0008400840A0008A30084030008B3070318DF
:10010000B40A2308B407A60A65283408B7003308E0
:10011000B600B9010530B80004282208B40021084F
:10012000B300A6013308B50000308316880083129F
:1001300035088800251025088316870083120710CC
:100140000A30B6002B282510250883168700831255
:06015000071462286300A1
:02400E00F93F78
:00000001FF
;PIC16F874
